{
  "contractName": "Vault",
  "abi": [
    {
      "inputs": [
        {
          "internalType": "address",
          "name": "_wethAddress",
          "type": "address"
        }
      ],
      "stateMutability": "nonpayable",
      "type": "constructor"
    },
    {
      "inputs": [
        {
          "internalType": "address",
          "name": "target",
          "type": "address"
        }
      ],
      "name": "AddressEmptyCode",
      "type": "error"
    },
    {
      "inputs": [
        {
          "internalType": "address",
          "name": "account",
          "type": "address"
        }
      ],
      "name": "AddressInsufficientBalance",
      "type": "error"
    },
    {
      "inputs": [],
      "name": "FailedInnerCall",
      "type": "error"
    },
    {
      "inputs": [],
      "name": "ReentrancyGuardReentrantCall",
      "type": "error"
    },
    {
      "inputs": [
        {
          "internalType": "address",
          "name": "token",
          "type": "address"
        }
      ],
      "name": "SafeERC20FailedOperation",
      "type": "error"
    },
    {
      "anonymous": false,
      "inputs": [
        {
          "indexed": true,
          "internalType": "address",
          "name": "user",
          "type": "address"
        },
        {
          "indexed": true,
          "internalType": "address",
          "name": "token",
          "type": "address"
        },
        {
          "indexed": false,
          "internalType": "uint256",
          "name": "amount",
          "type": "uint256"
        }
      ],
      "name": "DepositERC20",
      "type": "event"
    },
    {
      "anonymous": false,
      "inputs": [
        {
          "indexed": true,
          "internalType": "address",
          "name": "user",
          "type": "address"
        },
        {
          "indexed": false,
          "internalType": "uint256",
          "name": "amount",
          "type": "uint256"
        }
      ],
      "name": "DepositETH",
      "type": "event"
    },
    {
      "anonymous": false,
      "inputs": [
        {
          "indexed": true,
          "internalType": "address",
          "name": "user",
          "type": "address"
        },
        {
          "indexed": false,
          "internalType": "uint256",
          "name": "amount",
          "type": "uint256"
        }
      ],
      "name": "UnwrapWETH",
      "type": "event"
    },
    {
      "anonymous": false,
      "inputs": [
        {
          "indexed": true,
          "internalType": "address",
          "name": "user",
          "type": "address"
        },
        {
          "indexed": true,
          "internalType": "address",
          "name": "token",
          "type": "address"
        },
        {
          "indexed": false,
          "internalType": "uint256",
          "name": "amount",
          "type": "uint256"
        }
      ],
      "name": "WithdrawERC20",
      "type": "event"
    },
    {
      "anonymous": false,
      "inputs": [
        {
          "indexed": true,
          "internalType": "address",
          "name": "user",
          "type": "address"
        },
        {
          "indexed": false,
          "internalType": "uint256",
          "name": "amount",
          "type": "uint256"
        }
      ],
      "name": "WithdrawETH",
      "type": "event"
    },
    {
      "anonymous": false,
      "inputs": [
        {
          "indexed": true,
          "internalType": "address",
          "name": "user",
          "type": "address"
        },
        {
          "indexed": false,
          "internalType": "uint256",
          "name": "amount",
          "type": "uint256"
        }
      ],
      "name": "WrapToWETH",
      "type": "event"
    },
    {
      "inputs": [],
      "name": "weth",
      "outputs": [
        {
          "internalType": "contract IWETH",
          "name": "",
          "type": "address"
        }
      ],
      "stateMutability": "view",
      "type": "function"
    },
    {
      "stateMutability": "payable",
      "type": "receive"
    },
    {
      "inputs": [],
      "name": "depositETH",
      "outputs": [],
      "stateMutability": "payable",
      "type": "function"
    },
    {
      "inputs": [
        {
          "internalType": "uint256",
          "name": "amount",
          "type": "uint256"
        }
      ],
      "name": "withdrawETH",
      "outputs": [],
      "stateMutability": "nonpayable",
      "type": "function"
    },
    {
      "inputs": [
        {
          "internalType": "uint256",
          "name": "amount",
          "type": "uint256"
        }
      ],
      "name": "wrapToWETH",
      "outputs": [],
      "stateMutability": "nonpayable",
      "type": "function"
    },
    {
      "inputs": [
        {
          "internalType": "uint256",
          "name": "amount",
          "type": "uint256"
        }
      ],
      "name": "unwrapWETH",
      "outputs": [],
      "stateMutability": "nonpayable",
      "type": "function"
    },
    {
      "inputs": [
        {
          "internalType": "address",
          "name": "token",
          "type": "address"
        },
        {
          "internalType": "uint256",
          "name": "amount",
          "type": "uint256"
        }
      ],
      "name": "depositToken",
      "outputs": [],
      "stateMutability": "nonpayable",
      "type": "function"
    },
    {
      "inputs": [
        {
          "internalType": "address",
          "name": "token",
          "type": "address"
        },
        {
          "internalType": "uint256",
          "name": "amount",
          "type": "uint256"
        }
      ],
      "name": "withdrawToken",
      "outputs": [],
      "stateMutability": "nonpayable",
      "type": "function"
    }
  ],
  "bytecode": "0x60a060405234801562000010575f80fd5b50604051620017f5380380620017f58339818101604052810190620000369190620000dd565b60015f819055508073ffffffffffffffffffffffffffffffffffffffff1660808173ffffffffffffffffffffffffffffffffffffffff1681525050506200010d565b5f80fd5b5f73ffffffffffffffffffffffffffffffffffffffff82169050919050565b5f620000a7826200007c565b9050919050565b620000b9816200009b565b8114620000c4575f80fd5b50565b5f81519050620000d781620000ae565b92915050565b5f60208284031215620000f557620000f462000078565b5b5f6200010484828501620000c7565b91505092915050565b6080516116ac620001495f395f81816103b40152818161043501528181610538015281816107550152818161083001526108da01526116ac5ff3fe608060405260043610610073575f3560e01c80639e281a981161004d5780639e281a9814610131578063f018a8c114610159578063f14210a614610181578063f6326fb3146101a9576100b3565b8063338b5dea146100b75780633c7f4c57146100df5780633fc8cef314610107576100b3565b366100b3576040517f08c379a00000000000000000000000000000000000000000000000000000000081526004016100aa906110f2565b60405180910390fd5b5f80fd5b3480156100c2575f80fd5b506100dd60048036038101906100d891906111a1565b6101b3565b005b3480156100ea575f80fd5b50610105600480360381019061010091906111df565b6102d7565b005b348015610112575f80fd5b5061011b610536565b6040516101289190611265565b60405180910390f35b34801561013c575f80fd5b50610157600480360381019061015291906111a1565b61055a565b005b348015610164575f80fd5b5061017f600480360381019061017a91906111df565b610747565b005b34801561018c575f80fd5b506101a760048036038101906101a291906111df565b610a60565b005b6101b1610c3d565b005b6101e03330838573ffffffffffffffffffffffffffffffffffffffff16610ce0909392919063ffffffff16565b8060025f8473ffffffffffffffffffffffffffffffffffffffff1673ffffffffffffffffffffffffffffffffffffffff1681526020019081526020015f205f3373ffffffffffffffffffffffffffffffffffffffff1673ffffffffffffffffffffffffffffffffffffffff1681526020019081526020015f205f82825461026791906112ab565b925050819055508173ffffffffffffffffffffffffffffffffffffffff163373ffffffffffffffffffffffffffffffffffffffff167f2dfd2dfb41de1102485c9a50c6005dae2cdad90016d81a39c7691e941799151a836040516102cb91906112ed565b60405180910390a35050565b6102df610d62565b8060015f3373ffffffffffffffffffffffffffffffffffffffff1673ffffffffffffffffffffffffffffffffffffffff1681526020019081526020015f2054101561035f576040517f08c379a000000000000000000000000000000000000000000000000000000000815260040161035690611350565b60405180910390fd5b8060015f3373ffffffffffffffffffffffffffffffffffffffff1673ffffffffffffffffffffffffffffffffffffffff1681526020019081526020015f205f8282546103ab919061136e565b925050819055507f000000000000000000000000000000000000000000000000000000000000000073ffffffffffffffffffffffffffffffffffffffff1663d0e30db0826040518263ffffffff1660e01b81526004015f604051808303818588803b158015610418575f80fd5b505af115801561042a573d5f803e3d5ffd5b50505050508060025f7f000000000000000000000000000000000000000000000000000000000000000073ffffffffffffffffffffffffffffffffffffffff1673ffffffffffffffffffffffffffffffffffffffff1681526020019081526020015f205f3373ffffffffffffffffffffffffffffffffffffffff1673ffffffffffffffffffffffffffffffffffffffff1681526020019081526020015f205f8282546104d691906112ab565b925050819055503373ffffffffffffffffffffffffffffffffffffffff167f5aa0f3c87688765c3e75ed24911bf440e07339f9635bf9acb0cc9bbeb28aba8f8260405161052391906112ed565b60405180910390a2610533610da6565b50565b7f000000000000000000000000000000000000000000000000000000000000000081565b610562610d62565b8060025f8473ffffffffffffffffffffffffffffffffffffffff1673ffffffffffffffffffffffffffffffffffffffff1681526020019081526020015f205f3373ffffffffffffffffffffffffffffffffffffffff1673ffffffffffffffffffffffffffffffffffffffff1681526020019081526020015f2054101561061d576040517f08c379a0000000000000000000000000000000000000000000000000000000008152600401610614906113eb565b60405180910390fd5b8060025f8473ffffffffffffffffffffffffffffffffffffffff1673ffffffffffffffffffffffffffffffffffffffff1681526020019081526020015f205f3373ffffffffffffffffffffffffffffffffffffffff1673ffffffffffffffffffffffffffffffffffffffff1681526020019081526020015f205f8282546106a4919061136e565b925050819055506106d633828473ffffffffffffffffffffffffffffffffffffffff16610daf9092919063ffffffff16565b8173ffffffffffffffffffffffffffffffffffffffff163373ffffffffffffffffffffffffffffffffffffffff167f33c35f9541201e342d5e7467016e65a0a06182eb12a5f17103f71cec95b6cb298360405161073391906112ed565b60405180910390a3610743610da6565b5050565b61074f610d62565b8060025f7f000000000000000000000000000000000000000000000000000000000000000073ffffffffffffffffffffffffffffffffffffffff1673ffffffffffffffffffffffffffffffffffffffff1681526020019081526020015f205f3373ffffffffffffffffffffffffffffffffffffffff1673ffffffffffffffffffffffffffffffffffffffff1681526020019081526020015f2054101561082a576040517f08c379a000000000000000000000000000000000000000000000000000000000815260040161082190611453565b60405180910390fd5b8060025f7f000000000000000000000000000000000000000000000000000000000000000073ffffffffffffffffffffffffffffffffffffffff1673ffffffffffffffffffffffffffffffffffffffff1681526020019081526020015f205f3373ffffffffffffffffffffffffffffffffffffffff1673ffffffffffffffffffffffffffffffffffffffff1681526020019081526020015f205f8282546108d1919061136e565b925050819055507f000000000000000000000000000000000000000000000000000000000000000073ffffffffffffffffffffffffffffffffffffffff16632e1a7d4d826040518263ffffffff1660e01b815260040161093191906112ed565b5f604051808303815f87803b158015610948575f80fd5b505af115801561095a573d5f803e3d5ffd5b505050505f3373ffffffffffffffffffffffffffffffffffffffff16826040516109839061149e565b5f6040518083038185875af1925050503d805f81146109bd576040519150601f19603f3d011682016040523d82523d5f602084013e6109c2565b606091505b5050905080610a06576040517f08c379a00000000000000000000000000000000000000000000000000000000081526004016109fd906114fc565b60405180910390fd5b3373ffffffffffffffffffffffffffffffffffffffff167f2afe37369ecdc81473e1fb2c597da66e6e635bc0093473890f10b7c6d5b2417383604051610a4c91906112ed565b60405180910390a250610a5d610da6565b50565b610a68610d62565b8060015f3373ffffffffffffffffffffffffffffffffffffffff1673ffffffffffffffffffffffffffffffffffffffff1681526020019081526020015f20541015610ae8576040517f08c379a0000000000000000000000000000000000000000000000000000000008152600401610adf906113eb565b60405180910390fd5b8060015f3373ffffffffffffffffffffffffffffffffffffffff1673ffffffffffffffffffffffffffffffffffffffff1681526020019081526020015f205f828254610b34919061136e565b925050819055505f3373ffffffffffffffffffffffffffffffffffffffff1682604051610b609061149e565b5f6040518083038185875af1925050503d805f8114610b9a576040519150601f19603f3d011682016040523d82523d5f602084013e610b9f565b606091505b5050905080610be3576040517f08c379a0000000000000000000000000000000000000000000000000000000008152600401610bda906114fc565b60405180910390fd5b3373ffffffffffffffffffffffffffffffffffffffff167f566e45b1c8057e725bf62796a7f1d37ae294393cab069725a09daddd1af98b7983604051610c2991906112ed565b60405180910390a250610c3a610da6565b50565b3460015f3373ffffffffffffffffffffffffffffffffffffffff1673ffffffffffffffffffffffffffffffffffffffff1681526020019081526020015f205f828254610c8991906112ab565b925050819055503373ffffffffffffffffffffffffffffffffffffffff167fced5d8bf10823804603bba066e4f53aa6e8f6f4be68bf0114cf7a0e52183e4e934604051610cd691906112ed565b60405180910390a2565b610d5c848573ffffffffffffffffffffffffffffffffffffffff166323b872dd868686604051602401610d1593929190611529565b604051602081830303815290604052915060e01b6020820180517bffffffffffffffffffffffffffffffffffffffffffffffffffffffff8381831617835250505050610e2e565b50505050565b60025f5403610d9d576040517f3ee5aeb500000000000000000000000000000000000000000000000000000000815260040160405180910390fd5b60025f81905550565b60015f81905550565b610e29838473ffffffffffffffffffffffffffffffffffffffff1663a9059cbb8585604051602401610de292919061155e565b604051602081830303815290604052915060e01b6020820180517bffffffffffffffffffffffffffffffffffffffffffffffffffffffff8381831617835250505050610e2e565b505050565b5f610e58828473ffffffffffffffffffffffffffffffffffffffff16610ec390919063ffffffff16565b90505f815114158015610e7c575080806020019051810190610e7a91906115ba565b155b15610ebe57826040517f5274afe7000000000000000000000000000000000000000000000000000000008152600401610eb591906115e5565b60405180910390fd5b505050565b6060610ed083835f610ed8565b905092915050565b606081471015610f1f57306040517fcd786059000000000000000000000000000000000000000000000000000000008152600401610f1691906115e5565b60405180910390fd5b5f808573ffffffffffffffffffffffffffffffffffffffff168486604051610f479190611660565b5f6040518083038185875af1925050503d805f8114610f81576040519150601f19603f3d011682016040523d82523d5f602084013e610f86565b606091505b5091509150610f96868383610fa1565b925050509392505050565b606082610fb657610fb18261102e565b611026565b5f8251148015610fdc57505f8473ffffffffffffffffffffffffffffffffffffffff163b145b1561101e57836040517f9996b31500000000000000000000000000000000000000000000000000000000815260040161101591906115e5565b60405180910390fd5b819050611027565b5b9392505050565b5f815111156110405780518082602001fd5b6040517f1425ea4200000000000000000000000000000000000000000000000000000000815260040160405180910390fd5b5f82825260208201905092915050565b7f44697265637420455448206465706f7369747320617265206e6f7420616c6c6f5f8201527f7765642c20757365206465706f7369744554482e000000000000000000000000602082015250565b5f6110dc603483611072565b91506110e782611082565b604082019050919050565b5f6020820190508181035f830152611109816110d0565b9050919050565b5f80fd5b5f73ffffffffffffffffffffffffffffffffffffffff82169050919050565b5f61113d82611114565b9050919050565b61114d81611133565b8114611157575f80fd5b50565b5f8135905061116881611144565b92915050565b5f819050919050565b6111808161116e565b811461118a575f80fd5b50565b5f8135905061119b81611177565b92915050565b5f80604083850312156111b7576111b6611110565b5b5f6111c48582860161115a565b92505060206111d58582860161118d565b9150509250929050565b5f602082840312156111f4576111f3611110565b5b5f6112018482850161118d565b91505092915050565b5f819050919050565b5f61122d61122861122384611114565b61120a565b611114565b9050919050565b5f61123e82611213565b9050919050565b5f61124f82611234565b9050919050565b61125f81611245565b82525050565b5f6020820190506112785f830184611256565b92915050565b7f4e487b71000000000000000000000000000000000000000000000000000000005f52601160045260245ffd5b5f6112b58261116e565b91506112c08361116e565b92508282019050808211156112d8576112d761127e565b5b92915050565b6112e78161116e565b82525050565b5f6020820190506113005f8301846112de565b92915050565b7f496e73756666696369656e74204554482062616c616e636500000000000000005f82015250565b5f61133a601883611072565b915061134582611306565b602082019050919050565b5f6020820190508181035f8301526113678161132e565b9050919050565b5f6113788261116e565b91506113838361116e565b925082820390508181111561139b5761139a61127e565b5b92915050565b7f496e73756666696369656e742062616c616e63650000000000000000000000005f82015250565b5f6113d5601483611072565b91506113e0826113a1565b602082019050919050565b5f6020820190508181035f830152611402816113c9565b9050919050565b7f496e73756666696369656e7420574554482062616c616e6365000000000000005f82015250565b5f61143d601983611072565b915061144882611409565b602082019050919050565b5f6020820190508181035f83015261146a81611431565b9050919050565b5f81905092915050565b50565b5f6114895f83611471565b91506114948261147b565b5f82019050919050565b5f6114a88261147e565b9150819050919050565b7f4661696c656420746f2073656e642045544800000000000000000000000000005f82015250565b5f6114e6601283611072565b91506114f1826114b2565b602082019050919050565b5f6020820190508181035f830152611513816114da565b9050919050565b61152381611133565b82525050565b5f60608201905061153c5f83018661151a565b611549602083018561151a565b61155660408301846112de565b949350505050565b5f6040820190506115715f83018561151a565b61157e60208301846112de565b9392505050565b5f8115159050919050565b61159981611585565b81146115a3575f80fd5b50565b5f815190506115b481611590565b92915050565b5f602082840312156115cf576115ce611110565b5b5f6115dc848285016115a6565b91505092915050565b5f6020820190506115f85f83018461151a565b92915050565b5f81519050919050565b5f5b8381101561162557808201518184015260208101905061160a565b5f8484015250505050565b5f61163a826115fe565b6116448185611471565b9350611654818560208601611608565b80840191505092915050565b5f61166b8284611630565b91508190509291505056fea2646970667358221220430096e703c6a80c9c5d8a6dffc29c84d5ad2475df04e84f221677e6149dff9264736f6c63430008150033",
  "immutableReferences": {
    "748": [
      {
        "length": 32,
        "start": 948
      },
      {
        "length": 32,
        "start": 1077
      },
      {
        "length": 32,
        "start": 1336
      },
      {
        "length": 32,
        "start": 1877
      },
      {
        "length": 32,
        "start": 2096
      },
      {
        "length": 32,
        "start": 2266
      }
    ]
  },
  "source": "// SPDX-License-Identifier: MIT\r\npragma solidity ^0.8.0;\r\n\r\nimport \"@openzeppelin/contracts/token/ERC20/IERC20.sol\";\r\nimport \"@openzeppelin/contracts/token/ERC20/utils/SafeERC20.sol\";\r\nimport \"@openzeppelin/contracts/utils/ReentrancyGuard.sol\";\r\n\r\ninterface IWETH {\r\n    function deposit() external payable;\r\n    function withdraw(uint amount) external;\r\n}\r\n\r\ncontract Vault is ReentrancyGuard {\r\n    using SafeERC20 for IERC20;\r\n    \r\n    IWETH public immutable weth;\r\n    mapping(address => uint256) private _ethBalances;\r\n    mapping(address => mapping(address => uint256)) private _tokenBalances;\r\n\r\n    event DepositETH(address indexed user, uint256 amount);\r\n    event WithdrawETH(address indexed user, uint256 amount);\r\n    event WrapToWETH(address indexed user, uint256 amount);\r\n    event UnwrapWETH(address indexed user, uint256 amount);\r\n    event DepositERC20(address indexed user, address indexed token, uint256 amount);\r\n    event WithdrawERC20(address indexed user, address indexed token, uint256 amount);\r\n\r\n    constructor(address _wethAddress) {\r\n        weth = IWETH(_wethAddress);\r\n    }\r\n\r\n    // Deposit ETH without conversion\r\n    function depositETH() external payable {\r\n        _ethBalances[msg.sender] += msg.value;\r\n        emit DepositETH(msg.sender, msg.value);\r\n    }\r\n\r\n    // Withdraw ETH\r\n    function withdrawETH(uint256 amount) external nonReentrant {\r\n        require(_ethBalances[msg.sender] >= amount, \"Insufficient balance\");\r\n        _ethBalances[msg.sender] -= amount;\r\n        (bool sent, ) = msg.sender.call{value: amount}(\"\");\r\n        require(sent, \"Failed to send ETH\");\r\n        emit WithdrawETH(msg.sender, amount);\r\n    }\r\n\r\n    // Wrap ETH to WETH\r\n    function wrapToWETH(uint256 amount) external nonReentrant {\r\n        require(_ethBalances[msg.sender] >= amount, \"Insufficient ETH balance\");\r\n        _ethBalances[msg.sender] -= amount;\r\n        weth.deposit{value: amount}();\r\n        _tokenBalances[address(weth)][msg.sender] += amount;\r\n        emit WrapToWETH(msg.sender, amount);\r\n    }\r\n\r\n    // Unwrap WETH to ETH\r\n    function unwrapWETH(uint256 amount) external nonReentrant {\r\n        require(_tokenBalances[address(weth)][msg.sender] >= amount, \"Insufficient WETH balance\");\r\n        _tokenBalances[address(weth)][msg.sender] -= amount;\r\n        weth.withdraw(amount);\r\n        (bool sent, ) = msg.sender.call{value: amount}(\"\");\r\n        require(sent, \"Failed to send ETH\");\r\n        emit UnwrapWETH(msg.sender, amount);\r\n    }\r\n\r\n    // Deposit ERC20 tokens\r\n    function depositToken(address token, uint256 amount) external {\r\n        IERC20(token).safeTransferFrom(msg.sender, address(this), amount);\r\n        _tokenBalances[token][msg.sender] += amount;\r\n        emit DepositERC20(msg.sender, token, amount);\r\n    }\r\n\r\n    // Withdraw ERC20 tokens\r\n    function withdrawToken(address token, uint256 amount) external nonReentrant {\r\n        require(_tokenBalances[token][msg.sender] >= amount, \"Insufficient balance\");\r\n        _tokenBalances[token][msg.sender] -= amount;\r\n        IERC20(token).safeTransfer(msg.sender, amount);\r\n        emit WithdrawERC20(msg.sender, token, amount);\r\n    }\r\n\r\n    // Receive function to handle direct ETH deposits\r\n    receive() external payable {\r\n        // Directly depositing ETH is not expected behavior; should only accept ETH as part of WETH wrapping.\r\n        // Hence, we can revert any direct ETH transfers that aren't part of a function call (like depositETH or wrapToWETH)\r\n        revert(\"Direct ETH deposits are not allowed, use depositETH.\");\r\n    }\r\n}\r\n",
  "sourcePath": "C:\\Projects\\Decentralized-Vault-\\contracts\\Vault.sol",
  "compiler": {
    "name": "solc",
    "version": "0.8.21+commit.d9974bed.Emscripten.clang"
  },
  "schemaVersion": "3.4.16",
  "updatedAt": "2024-05-07T06:45:34.439Z",
  "devdoc": {
    "errors": {
      "AddressEmptyCode(address)": [
        {
          "details": "There's no code at `target` (it is not a contract)."
        }
      ],
      "AddressInsufficientBalance(address)": [
        {
          "details": "The ETH balance of the account is not enough to perform the operation."
        }
      ],
      "FailedInnerCall()": [
        {
          "details": "A call to an address target failed. The target may have reverted."
        }
      ],
      "ReentrancyGuardReentrantCall()": [
        {
          "details": "Unauthorized reentrant call."
        }
      ],
      "SafeERC20FailedOperation(address)": [
        {
          "details": "An operation with an ERC20 token failed."
        }
      ]
    },
    "kind": "dev",
    "methods": {},
    "version": 1
  },
  "userdoc": {
    "kind": "user",
    "methods": {},
    "version": 1
  }
}